:100000000C9434000C943E000C943E000C943E0082
:100010000C943E000C943E000C943E000C943E0068
:100020000C943E000C943E000C943E000C943E0058
:100030000C943E000C943E000C943E000C943E0048
:100040000C943E000C943E000C943E000C943E0038
:100050000C943E000C943E000C943E000C943E0028
:100060000C943E000C943E0011241FBECFEFD8E04C
:10007000DEBFCDBF0E9440000C9459000C940000DC
:100080008AB18B7F8AB984B1816084B98BB1846075
:100090008BB94A99FECF2FEF83ED90E3215080403A
:1000A0009040E1F700C0000095B181E0892785B953
:0600B000F0CFF894FFCF31
:00000001FF
